:020000040800F2
:1000000020080024D11E00081F450008FD1E00081E
:10001000FD1E0008FD1E0008FD1E00080000000077
:10002000000000000000000000000000C51C0008E7
:10003000FD1E000800000000711C0008BD1A000829
:10004000A91E0008A91E0008A91E0008A91E000874
:10005000A91E0008A91E0008A91E0008A91E000864
:10006000A91E0008A91E0008A91E0008A91E000854
:10007000A91E0008A91E0008A91E0008A91E000844
:1002980080F0004002E000BF81F0004142001FBF33
:1002A8005FEA410392EA030F7FEA226C7FEA236C3C
:1002B8006AD04FEA1262D2EB1363C1BFD218414031
:1002C80048404140B8BF5B42192B88BF704710F0C7
:1002D800004F40F4000020F07F4018BF404211F06A
:1002E800004F41F4000121F07F4118BF494292EAD2
:1002F800030F3FD0A2F1010241FA03FC10EB0C00FE
:10030800C3F1200301FA03F100F0004302D549428A
:1003180060EB4000B0F5000F13D3B0F1807F06D337
:1003280040084FEA310102F10102FE2A51D2B1F12F
:10033800004F40EBC25008BF20F0010040EA030024
:100348007047490040EB0000013A28BFB0F5000FA4
:10035800EDD2B0FA80FCACF1080CB2EB0C0200FA5A
:100368000CF0AABF00EBC25052421843BCBFD040A9
:100378001843704792F0000F81F4000106BF80F423
:1003880000000132013BB5E74FEA41037FEA226CE6
:1003980018BF7FEA236C21D092EA030F04D092F0B1
:1003A800000F08BF0846704790EA010F1CBF0020E5
:1003B800704712F07F4F04D1400028BF40F0004042
:1003C800704712F100723CBF00F50000704700F062
:1003D800004343F0FE4040F4000070477FEA226289
:1003E80016BF08467FEA23630146420206BF5FEA5A
:1003F800412390EA010F40F4800070474FF000035A
:1004080004E000BF10F0004348BF40425FEA000C20
:1004180008BF704743F0964301464FF000001CE0C8
:1004280050EA010208BF70474FF000030AE000BF1E
:1004380050EA010208BF704711F0004302D540425C
:1004480061EB41015FEA010C02BF844601460020CE
:1004580043F0B64308BFA3F18053A3F50003BCFAE9
:100468008CF2083AA3EBC25310DB01FA02FC634496
:1004780000FA02FCC2F12002BCF1004F20FA02F29D
:1004880043EB020008BF20F00100704702F1200290
:1004980001FA02FCC2F1200250EA4C0021FA02F2F1
:1004A80043EB020008BF20EADC7070474FF0FF0CF6
:1004B8001CEAD0521EBF1CEAD15392EA0C0F93EAF1
:1004C8000C0F6FD01A4480EA010C400218BF5FEA93
:1004D80041211ED04FF0006343EA501043EA511106
:1004E800A0FB01310CF00040B1F5000F3EBF490000
:1004F80041EAD3715B0040EA010062F17F02FD2A04
:100508001DD8B3F1004F40EBC25008BF20F00100E6
:10051800704790F0000F0CF0004C08BF49024CEAFD
:10052800502040EA51207F3AC2BFD2F1FF0340EA8F
:10053800C250704740F400004FF00003013A5DDC00
:1005480012F1190FDCBF00F000407047C2F1000241
:10055800410021FA02F1C2F1200200FA02FC5FEA2E
:10056800310040F1000053EA4C0308BF20EADC7078
:10057800704792F0000F00F0004C02BF400010F4EA
:10058800000F013AF9D040EA0C0093F0000F01F097
:10059800004C02BF490011F4000F013BF9D041EAB9
:1005A8000C018FE70CEAD15392EA0C0F18BF93EABB
:1005B8000C0F0AD030F0004C18BF31F0004CD8D1E5
:1005C80080EA010000F00040704790F0000F17BF6C
:1005D80090F0004F084691F0000F91F0004F14D0B2
:1005E80092EA0C0F01D142020FD193EA0C0F03D10A
:1005F8004B0218BF084608D180EA010000F000400D
:1006080040F0FE4040F40000704740F0FE4040F4E7
:10061800400070474FF0FF0C1CEAD0521EBF1CEA86
:10062800D15392EA0C0F93EA0C0F69D0A2EB0302A4
:1006380080EA010C49024FEA402037D04FF080533E
:1006480043EA111143EA10130CF000408B4238BF03
:100658005B0042F17D024FF4000C8B4224BF5B1A11
:1006680040EA0C00B3EB510F24BFA3EB510340EA5F
:100678005C00B3EB910F24BFA3EB910340EA9C000D
:10068800B3EBD10F24BFA3EBD10340EADC001B017D
:1006980018BF5FEA1C1CE0D1FD2A3FF650AF8B4221
:1006A80040EBC25008BF20F0010070470CF0004C2E
:1006B8004CEA50207F32C2BFD2F1FF0340EAC25059
:1006C800704740F400004FF00003013A37E792F01A
:1006D800000F00F0004C02BF400010F4000F013A78
:1006E800F9D040EA0C0093F0000F01F0004C02BF73
:1006F800490011F4000F013BF9D041EA0C0195E7DC
:100708000CEAD15392EA0C0F08D142027FF47DAF74
:1007180093EA0C0F7FF470AF084676E793EA0C0F64
:1007280004D14B023FF44CAF08466EE730F0004C62
:1007380018BF31F0004CCAD130F000427FF45CAFF2
:1007480031F000437FF43CAF5FE700BF42000ED2B8
:10075800B2F1FE4F0BD34FF09E03B3EB126209D4F4
:100768004FEA002343F0004323FA02F070474FF0AA
:100778000000704712F1610F01D1420202D14FF01F
:10078800FF3070474FF00000704700BF53B94AB9B7
:10079800002908BF00281CBF4FF0FF314FF0FF3081
:1007A80000F06EB9ADF1080C6DE904CE00F006F862
:1007B800DDF804E0DDE9022304B070472DE9F047D5
:1007C800089D0E4604468C46002B40F081808A42E4
:1007D800174645D9B2FA82F24AB1C2F1200106FAA7
:1007E80002F320FA01F1974041EA030C94404FEAE2
:1007F800174E230CBCFBFEF6B9B20EFB16CC43EA2F
:100808000C4306FB01F0984209D9FB1806F1FF3C9E
:1008180080F01581984240F21281023E3B441B1A37
:10082800A4B2B3FBFEF00EFB103344EA034400FB12
:1008380001F1A14209D93C1900F1FF3380F001818F
:10084800A14240F2FE8002383C44641A40EA064065
:1008580000211DB1D4400023C5E90043BDE8F0875D
:1008680002B9FFDEB2FA82F2002A4FD1CB1B4FEA5F
:10087800174E1FFA87F80121B3FBFEFC260C0EFB6E
:100888001C3346EA034608FB0CF3B34207D9BE19EA
:100898000CF1FF3002D2B34200F2EB808446F61A24
:1008A800A3B2B6FBFEF00EFB106643EA064408FB53
:1008B80000F8A04507D93C1900F1FF3302D2A04542
:1008C80000F2D2801846A4EB080440EA0C40C0E7C6
:1008D8008B4208D9002D00F0AF800021C5E9000641
:1008E8000846BDE8F087B3FA83F1002949D1B3423D
:1008F80002D3824200F2BB80841A66EB0303012014
:100908009C46002DAAD0C5E9004CA7E7C2F12003F8
:100918009740D8409140DE404FEA174E08434FEACF
:10092800104CB6FBFEF11FFA87F80EFB11664CEA75
:10093800064601FB08F3B34204FA02F409D9BE19CA
:1009480001F1FF3C80F08E80B34240F28B80023987
:100958003E44F31A86B2B3FBFEF00EFB103346EAB0
:10096800034600FB08F3B34207D9BE1900F1FF3C68
:1009780074D2B34272D902383E44F31A40EA0141B4
:100988007AE7C1F1200703FA01F422FA07F31C43BE
:1009980020FA07F906FA01F34FEA144CFE4049EA37
:1009A80003094FEA1943B6FBFCFE1FFA84F80CFB57
:1009B8001E6643EA06460EFB08FAB24502FA01F241
:1009C80000FA01F308D9A6190EF1FF3048D2B24552
:1009D80046D9AEF1020E2644A6EB0A061FFA89F99B
:1009E800B6FBFCF00CFB106649EA064600FB08F86B
:1009F800B04507D9A61900F1FF3C2DD2B0452BD937
:100A08000238264440EA0E40A6EB0806A0FB0289FD
:100A18004E45C446CE4618D315D075B3B3EB0C0279
:100A280066EB0E0606FA07F722FA01F3CE401F43DB
:100A3800C5E90076002111E7294628460EE76646F3
:100A4800EDE6184601E74345E7D2B8EB020C69EB3F
:100A580004040138A646E0E76046D3E760468CE721
:100A68008646B9E7614674E702383C442BE70846F6
:100A780047E7ACF1020C3E4411E72946EEE600BF19
:100A8800704700BF2DE9F04F064687B00D46174660
:100A9800836804AA01215B689847039080BB1B4ABE
:100AA8000023DDE9044BA5FB048905FB0B994046AF
:100AB8004946FFF76BFE164B4FF0FF3282464B4517
:100AC80008BF42451FD3A7FB0445104A002307FB74
:100AD8000B5520462946FFF759FE0D4A4FF0FF31C6
:100AE8000346AA4208BFA1420DD3B2683046039913
:100AF8000091012114685246A04707B0BDE8F08F65
:100B08006FF00400F9E76FF02200F6E740420F00AB
:100B18003F420F0028482DE9F04703F009FB27481A
:100B280002F03CFC074628B924492548BDE8F047AF
:100B380003F0FEBA0525234E01222049224803F07E
:100B4800F7FAB1467608384632464946FFF79AFF23
:100B5800044698B9C84643F6085A43F60952494626
:100B68001A4803F0E5FA4FEA5805414638462A463E
:100B7800FFF788FF014658B11548D7E7013DE0D196
:100B88004FF224420D491348BDE8F04703F0D0BAAC
:100B98000CB14FEA4805A9450BD3554502D80124A5
:100BA80047F6122549F640400021A84603F07AF896
:100BB800D9E735460024F5E70E540008205400080C
:100BC8002754000840420F0045540008AA54000862
:100BD800E05400086E5400082DE9F04387B006463B
:100BE8000F46104619469DF83C909DF84080142504
:100BF8001C4C50EA010317D1142D119C18BF013564
:100C0800A4F1150408BF30232C4408BF8DF8143014
:100C180024EAE47414B1B9F1000F12D1142D15D9D6
:100C2800D4B907B0BDE8F0830E9A0023FFF7AEFDF4
:100C380084460B46A25C60460DF805201946013D26
:100C4800D7E739464046013CB047E3E71DF80500C1
:100C580039460135B047E1E739464046013CB047DF
:100C6800DEE700BF05550008014B1860704700BF5C
:100C7800000000242DE9F04F002687B005468B467A
:100C88001C4602F1FF3A4FF0FF3837464FF0000993
:100C980007E0B9F1000F0BD1252800F00A81594669
:100CA800A8471AF8010F0028F3D107B0BDE8F08F64
:100CB8007A280AD8622810D8302851D044D8252854
:100CC80000F0F5802D2800F0FB8059462520A84724
:100CD80059469AF80000A847D8E7A0F16303172BF4
:100CE800F3D801A252F823F0AF0E0008B10D0008A6
:100CF800D30C0008D30C0008D30C0008930D00088F
:100D0800B10D0008D30C0008D30C0008930D00089F
:100D1800D30C0008D30C0008D30C00082B0E0008D5
:100D2800D30C0008D30C0008770E0008D30C000879
:100D3800B10D0008D30C0008D30C0008590D0008A9
:100D4800D30C0008930D0008392815D95828BCD1B0
:100D58009AF80030702B6ED154F8042B002375E0FC
:100D6800B8F1000F0BDA002F00F0AC80A0F13008CA
:100D7800002F08BF022794E7B8F1000FF6DB0A231B
:100D880003FB0808A8F13008F2E7682803D1682EA9
:100D980006D1482685E76C2802D16C2E00F0948095
:100DA800002E92D106467CE77A2E06D1A14659F844
:100DB800042BD317752823D10FE06C2EF6D04C2EB8
:100DC80005D1073424F00709F9E80223F2E775286A
:100DD80004F10409226812D10023F81E594618BFED
:100DE8000120012F01900CBF302420240A20CDE9D6
:100DF8000248009028464C46FFF7EEFE46E7D31718
:100E0800002A73F10001E8DA59462D2008F1FF386D
:100E1800CDE90423A847DDE90423524263EB4303E9
:100E2800DBE759463020A847594678204FF0080894
:100E38000127A8478CE76C2E8ED04C2E8CD1E31D51
:100E480023F007031C465B6854F8082BF81E18BFEC
:100E58000120012F0CBF3021202101902846CDE927
:100E68000218102100915946FFF7B6FE0EE754F814
:100E7800043B99464A4619F8010B78B9032F25D146
:100E8800A2EB0309A8EB0909B9F1000F7FF7FEAE41
:100E98005946202009F1FF39A847F5E75946049338
:100EA800A847049BE6E7594654F8040B13E759464C
:100EB80011E74E464F464FF0FF384FF00109F0E674
:100EC8000327EEE60127ECE64C26EAE68146E8E64B
:100ED800F0B54FF01003EFF3118083F31188BFF3DF
:100EE8006F8F2D4B5A6912F4003211D1BFF34F8F17
:100EF800BFF36F8FC3F85022BFF34F8FBFF36F8FCD
:100F08005A6942F400325A61BFF34F8FBFF36F8FB3
:100F1800214B5A69D10327D45A6912F4803223D15C
:100F2800C3F88420BFF34F8FD3F8802043F6E075D1
:100F3800C2F3C904C2F34E32520102EA0507214640
:100F480047EA81760139C3F86062F9D2203A12F192
:100F5800200FF2D1BFF34F8F5A6942F480325A61A1
:100F6800BFF34F8FBFF36F8F80F31188BFF36F8F7D
:100F78000A4B0B4A1A600B4BDA6822F0070242F060
:100F88000202DA609A6942F440429A619A699204CC
:100F9800FCD50020F0BD00BF00ED00E028000024D3
:100FA8000090D00300480258134B2DE9F04F1B68FE
:100FB80085B0074688461646104C9847104B814620
:100FC8004FF0000B1B1B4FEA231ADA4502DC05B071
:100FD800BDE8F08F63685B794BB1236803965D6861
:100FE8002DB143464A46394620460096A8470BF19C
:100FF800010B1034E9E700BF040000245051000839
:1010080060510008034B4FF47A70034A1A6000F0ED
:1010180015BA00BF0400002421430008044A054B08
:101028009B1AB1EBD30F34BF52F831000020704740
:101038002851000850510008094B4268C31A1B1177
:10104800013310B5137101224368064C5A71227896
:10105800196012B9044802F04BFE0123237010BD39
:1010680050510008FC03002438010024114B70B5CE
:10107800BFF35B8F53E8005F6A1C43E80021002937
:10108800F8D1BFF35B8F2DB90B4C0C4E361B3611C4
:10109800B54200DB70BD237B43B123685B6903B1B4
:1010A8009847042200212046FFF7C6FF0135103477
:1010B800EEE700BF500200245051000860510008BC
:1010C800F8B50C4F3D784DB90B4CFFF7CFFF0B4EE1
:1010D800361B3611B54202DB01233B70F8BD63684D
:1010E8005B791BB1236820461B699847013510348A
:1010F800F0E700BFFD0300245051000860510008CC
:101108000EB403B503AB0146054853F8042B01930D
:10111800FFF7B0FD002002B05DF804EB03B07047A4
:10112800694300082DE9F04F11F0020485B090469C
:1011380006461A469DF8387001F0010901F00805C5
:1011480007D011F0440F37D13249FFF7D9FF0146D4
:101158000C46B9F1000F0AD02F4B30462F4953F8EF
:1011680027202F4B002A08BF1A46FFF7C9FF3DB1B9
:101178002C4B30462C4953F82720FFF7C1FF054672
:10118800B8F1000F43D0012303FA07F7274B17F0F4
:10119800100F274F18BF1F46BDF840109DF83C00A0
:1011A800FFF73CFF394602463046FFF7A9FF2844BF
:1011B800204405B0BDE8F08F1E4B19680029C7D040
:1011C8001D4B4FF4616E4FF47A7C4FF03C0A1B685C
:1011D800B2FBF3F3B3FBF1F4B4FBFEF20EFB124ED9
:1011E80001FB14340CFB04F4B4FBF1FB01FB1B44BE
:1011F8000CFB04F4BEFBFAF3B4FBF1F1CDE901B149
:101208000AFB13E100910D49FFF77AFF9FE7084FAA
:10121800C2E700BF28550008685100084D5500086E
:101228001A5500087C51000850550008245500083C
:101238001F550008540200245802002431550008A4
:1012480038B50C460546E10703D5084A0849FFF7B3
:1012580057FFE20608D4A30628464CBF05490649AD
:10126800BDE83840FFF74CBF38BD00BF1A5500082D
:101278004D55000857550008565500082DE9F04708
:101288001D46089B17460446DA060E4605D49906FD
:101298004CBF2A492A49FFF733FF4FF00008DFF80F
:1012A800A890A8452ADB0025DFF8A080DFF8A090E9
:1012B800DFF894A0BD422FD2725D49462046FFF761
:1012C8001FFF0135102D20D10025DFF87C80DFF8C5
:1012D800849020461B49FFF713FFAF4228D9725D5F
:1012E80049462046A2F120035F2B28BF2E22FFF794
:1012F80007FF0135102D14D1BDE8F0874946204677
:1013080008F10108FFF7FCFECBE76A07D2D1514686
:101318002046FFF7F5FECDE741462046FFF7F0FEF1
:10132800CFE76B07D9D141462046FFF7E9FED4E75E
:1013380041462046FFF7E4FEDBE700BF57550008AB
:101348005655000863550008615500085F550008A8
:1013580059550008655500082DE9FF4111F00706A9
:1013680005461C46DDE90A870BD0C1F38913C1F392
:10137800C201029313460122CDE900613946FFF705
:10138800D1FE4346224629460D48FFF773FC8EB925
:10139800013C334614F8016F002EFAD10A2B03D111
:1013A80008492846FFF7ACFE284604B0BDE8F041DE
:1013B80002F0EFBF324639462846FFF741FFF3E710
:1013C80069430008685500082DE9FF470E9E9846B6
:1013D80001F00709C1F38913C1F3C201044602935E
:1013E80013460122CDE900913146DDE90C75FFF77E
:1013F80099FE4246824610492046FFF781FE55B9BC
:1014080020464A463146FFF71BFF204604B0BDE898
:10141800F04702F0BEBF102DA8463946534628BFF4
:101428004FF010082046009642464744A5EB0805B1
:10143800FFF724FFE3E700BF4D55000810B5084A41
:1014480001230021074C1360A04204D801B11360A6
:10145800054B186010BD400801215B00F4E700BF90
:101468005802002440420F0054020024F8B50D46EB
:1014780004464618054FB44201D12846F8BD3868DD
:1014880014F8011B83685B689847F4E7700200242E
:10149800014802F07EBF00BFA851000808B5034804
:1014A80001F07CFF024B186008BD00BF8A55000898
:1014B800700200241FB50F2002900798019006982B
:1014C80000900348FFF780FF05B05DF804FB00BFFC
:1014D800A851000807B50F20019004980090034810
:1014E800FFF73AFF03B05DF804FB00BFA8510008FE
:1014F80010B5074801F052FF064C074B186020460C
:1015080001F04AF82046FFF7AFFB002010BD00BFEE
:101518008A55000825150008740200240A2838B5E1
:101528000446074D04D1286883680D215B689847F5
:1015380028688368E1B25B689847204638BD00BFD9
:10154800740200244FF0B0420123D2F88010834087
:101558000B43C2F88030024B33F9100000F0BEBBD9
:10156800D8530008074B10B5044653F8300028B983
:1015780043F8341003EBC4035A6010BD6FF00F003A
:10158800FBE700BF78020024034B002243F8302019
:1015980003EBC0035A607047780200240B688AB0D6
:1015A8000B2B7ED8DFE803F006153C56497D222F29
:1015B8007D7D63703C4A4B68D2F8D8101943C2F855
:1015C800D810D2F8D82013400193019B00200AB00C
:1015D8007047354A4B68D2F8DC101943C2F8DC1062
:1015E800D2F8DC2013400293029BEFE72E4A4B68A7
:1015F800D2F8D4101943C2F8D410D2F8D42013402A
:101608000393039BE2E7284A4B68D2F8E01019439A
:10161800C2F8E010D2F8E02013400493049BD5E709
:10162800214A4B68D2F8E8101943C2F8E810D2F8FA
:10163800E82013400593059BC8E71B4A4B68D2F87E
:10164800EC101943C2F8EC10D2F8EC2013400693C2
:10165800069BBBE7144A4B68D2F8F0101943C2F84E
:10166800F010D2F8F02013400793079BAEE70E4A1C
:101678004B68D2F8E4101943C2F8E410D2F8E42019
:1016880013400893089BA1E7074A4B68D2F8F41067
:101698001943C2F8F410D2F8F42013400993099BB7
:1016A80094E76FF0220092E7004402580B680B2B76
:1016B80059D8DFE803F006102B3D34581922585842
:1016C800464F2A4A4968D2F8D83023EA0103C2F8BB
:1016D800D83000207047254A4968D2F8DC3023EA20
:1016E8000103C2F8DC30F4E7204A4968D2F8D43064
:1016F80023EA0103C2F8D430EBE71C4A4968D2F860
:10170800E03023EA0103C2F8E030E2E7174A49680B
:10171800D2F8E83023EA0103C2F8E830D9E7134ADF
:101728004968D2F8EC3023EA0103C2F8EC30D0E77C
:101738000E4A4968D2F8F03023EA0103C2F8F030C3
:10174800C7E70A4A4968D2F8E43023EA0103C2F835
:10175800E430BEE7054A4968D2F8F43023EA0103C9
:10176800C2F8F430B5E76FF0220070470044025821
:101778000968084B0B29186808D801238B4040F6E4
:10178800DF410B4202D01060002070476FF022004A
:10179800704700BF280000247F4BD3F8E02042F0B8
:1017A800007213B5C3F8E020D3F8E0207B4902F0BB
:1017B80000720192019ACA6822F0070242F00202FE
:1017C800CA608A6942F440428A611A6802F01802C3
:1017D800083A102A96BF72490121895C1A6902F0F9
:1017E8003802102A00F0D58000F2B180002A00F0FB
:1017F800B280082A6B4B18BF0023674A6A4892696F
:1018080002F00F02083A072A96BF6849012431F806
:101818001240B3FBF4F4844201D201F00BFD5E4B9D
:101828001A6842F480221A601A6842F480321A60F8
:101838001A689203FCD59A6A22F0030242F0020267
:101848009A629A6A22F47C7242F010029A62DA6A08
:1018580022F00C0242F00802DA62DA6A22F002028E
:10186800DA62DA6A22F00102DA62DA6A42F4803273
:10187800DA62DA6A42F40032DA62DA6A42F4802220
:10188800DA621A6B22F4FF7222F0010242F01702A8
:101898001A631A6B22F47E4242F400721A631A6BBE
:1018A80022F4FE0242F440321A631A6B22F0FE421E
:1018B80042F080721A639A6922F470629A619A6996
:1018C80022F00F029A61DA6922F07002DA61DA69AD
:1018D80022F4E062DA619A6922F070029A611A6A67
:1018E80022F070021A621A6842F080721A602A4A5C
:1018F800114613689B01FCD5136923F0070343F0D5
:10190800030313610B6903F03803182BFAD1264837
:10191800844201D301F08EFC204AF0210020D368D4
:1019280023F0070343F00203D360936943F4404371
:1019380093611F4B1F4A5A601F4A82F823100722DF
:1019480098601A601D4B184A1A6002B010BD182A18
:1019580005D0002351E71A4BB3FBF1F34DE79B6A1F
:1019680003F00303032B16BF164A002352F8233053
:10197800094A106B916AC0F30800126B00FB03332D
:10198800C2F34620C1F3051200FB0222B3FBF2F3B7
:1019980033E70D4B31E700BF0044025800480258B6
:1019A800B655000800093D0000D8B805F8530008EE
:1019B80010E000E0FF76010000ED00E028000024C0
:1019C8000090D003B851000800127A0013B50446FD
:1019D800084611B9094801F0E1FC07230093084BB8
:1019E80053F824300193013305D0836869461B6896
:1019F800984702B010BD6FF00400FAE7AD55000833
:101A0800C45100082DE9F74F07460E4641B300259B
:101A1800184801F0C3FC07F1040A8046AB4657F8A2
:101A2800354014F0F00FE3B21ED15AF8352042F0D9
:101A3800200BC4F30729C4F303344146019320461D
:101A4800A402FFF7C3FF013504F1B040019B5A46D9
:101A580009F00F0100F5003002F028FEAE42DED199
:101A6800002003B0BDE8F08F102B08BF4FF0300BFB
:101A7800DFE700BFAD5500080B4B9A6819689868F6
:101A880011F4803F094B0A4910B501D1824205D2B1
:101A98001A680C6822441A60034A12681B680A68AC
:101AA8001344181A10BD00BF10E000E0040300241E
:101AB8000003002408B5FFF7DFFF0C4B0C4A186839
:101AC80011680844106000221A604FF41653094A3E
:101AD8001168401AB0FBF3F003FB0013136002F027
:101AE8008DFABDE8084000F02BBC00BF04030024B9
:101AF800FC020024F8020024094B1022002083F87D
:101B0800232042F27F52074B1A60074B1860074B9D
:101B18005A6098601A6842F007021A60704700BF5E
:101B280000ED00E0000300240403002410E000E0BE
:101B380070B504462A4D51B1431C0ED1294A136889
:101B480023F0010313604FF07F432B6070BD40F218
:101B5800D263B0F1FF3F08BF1C464FF01003EFF30C
:101B6800118683F31188BFF36F8FFFF785FF1E4B34
:101B78001A681044002218601C4B1A601C4B1B6822
:101B8800C21A0DD54FF480632B602B68154A013BB0
:101B980053600023936086F31188BFF36F8FD5E7F6
:101BA800013C40F2D26102F51552181A24EAE47495
:101BB8003F328C42A8BF0C464FF4165101FB042457
:101BC800B4FBF1F401FB0404B4F5806F04D9094BAC
:101BD8009C42D9D82C60D8E74FF48064FAE700BF5C
:101BE8000003002410E000E0FC02002404030024A9
:101BF800F802002400C3FF0010B54FF01003EFF304
:101C0800118483F31188BFF36F8FFFF735FF074BFC
:101C1800074A1B6812689B1A034484F31188BFF3B0
:101C28006F8F4FF41650B3FBF0F010BDFC02002488
:101C3800F8020024094A0A49936809689867D9672D
:101C480008494B6843F080534B60002383F31188A5
:101C5800BFF36F8F9368D86F704700BFBC03002431
:101C6800C053000800ED00E012498A684FF03800C0
:101C78001044EFF3098C80E8F01F102080F31188DE
:101C8800BFF36F8F0C4F4FF000664A6A8A603E6060
:101C9800906F0023936780F3118804B5104600F015
:101CA800A7FBBDE8044002F1380090E8F01F8CF370
:101CB80009887047BC03002404ED00E01EF0040FFF
:101CC8000CBFEFF30880EFF30980816911F8021C5B
:101CD8000229FFD001B502F01AFC01BD03B2002BA6
:101CE80008DB012200F01F005B0902FA00F0024A3B
:101CF80042F82300704700BF00E100E003B2013161
:101D0800002B4FEA0111C9B206DB03F1604303F56A
:101D1800614383F80013704700F00F00014B19541A
:101D2800704700BF14ED00E042F8203C203A009BC9
:101D380007495360019B21F001019360029B916167
:101D4800D3604FF08073D361002382658367704747
:101D5800534100080B4A0346906890B113F1160FDF
:101D6800806E05D0A0F120029A4206D8834204D2A0
:101D780081422CBF0021012100E00021002908BF79
:101D880000207047BC03002408B504460E461546DB
:101D980000F012FB084B20469C6000F029FB284607
:101DA80086F30988002163B681F31188BFF36F8F2A
:101DB8000022002302F0C9F9BC03002401491022C3
:101DC8000A60704710ED00E072B6404080F3118859
:101DD800BFF36F8FBFF34F8F30BF62B6BFF36F8F04
:101DE800704700BF73B506460C4601B3134B144D3C
:101DF800ED1A8B68ED080093AD0145F00105D1E9B6
:101E0800002328460F4902F097FA63690E492846CD
:101E18000093D4E9032302F08FFAE2690B492846BC
:101E280002F08AFAA2690A49284602F085FA214690
:101E3800304602B0BDE8704001F0F0BA2851000801
:101E480038510008D1550008005600082F560008E0
:101E58003E56000830BFFFF7FDBF00BF0E4A08B569
:101E680022F07F020D4B9A60BFF34F8FBFF36F8F45
:101E7800D3F8882022F47002C3F88820EFF3148383
:101E880023F0040383F3148801F028FB01F03EFBE0
:101E980000F064FA01F084FB0000000800ED00E0A7
:101EA80001B5EFF30580A0F110004FEAC000044926
:101EB800014409C99847BDE80140024908470000A4
:101EC800784C000849230008102080F3118808483E
:101ED8004FF40261401880F30988EFF3148002215F
:101EE800084380F31488BFF36F8FFFF7B7FF000034
:101EF800A0090024EFF30880EFF3098101B57246C9
:101F080000F048F901BD00BF2DE9F047334B074603
:101F1800334C8846334D1646E41A3349E408A40185
:101F280044F00109484602F007FAAA6AD00603D528
:101F38002E49484602F000FAAB6A190704D52C4925
:101F480044F0010002F0F8F9264DAB6A9A0735D53E
:101F580044F0010A2749504602F0EEF9D5F83490CA
:101F6800AB6A1B060BD54A462349504602F0E4F9F2
:101F7800B8F1000F03D0AB6A23F08003AB62194DB0
:101F8800AA6AD00704D51D4944F0010002F0D4F92B
:101F9800AB6A990604D51A4944F0010002F0CCF95D
:101FA800104B9A6AD2060CD400200E4A936A43F06A
:101FB800FF03936200233370BDE8F0876FF01509C3
:101FC800DDE75B681B05EFD539464846FFF7C2FEDB
:101FD8000028E9D080F309880220E6E728510008A4
:101FE8003851000800ED00E06C56000882560008E1
:101FF800B5560008C8560008E0560008F65600080E
:10200800155700082DE9F041294B0746294C0E4683
:10201800294DE41A2949E408A40144F0010840467E
:1020280002F08AF9AA6AD10403D52549404602F08C
:1020380083F9AB6A1A0504D5224944F0010002F07D
:102048007BF91D4DAB6A9B0512D544F001081E496A
:10205800404602F071F9AA6BAB6A180408D51B490F
:10206800404602F069F91FB1AB6A23F40043AB6242
:10207800114DAB6A590504D5154944F0010002F029
:102088005BF9AB6ADA050DD5124944F0010002F09C
:1020980053F9094A0020936A43F47F4393623070EE
:1020A800BDE8F081AB6A9B04F3D50B49EDE700BFAF
:1020B800285100083851000800ED00E04457000896
:1020C8005A570008B55600086B570008845700088F
:1020D80099570008B45700081557000870B5234BE6
:1020E800234C244DE41A2449E408A40144F00106D1
:1020F800304602F021F9AA6A930103D51F493046F8
:1021080002F01AF9AB6ADD0104D51D4944F001005B
:1021180002F012F9174DAA6A100304D5194944F0C0
:10212800010002F009F9AB6A590304D5164944F0D5
:10213800010002F001F90F4DAA6A920304D5134970
:1021480044F0010002F0F8F8AB6ADB0304D510494B
:1021580044F0010002F0F0F8064A0020936A6FEAA2
:1021680003436FEA1343936270BD00BF2851000810
:102178003851000800ED00E0CC570008E45700088B
:10218800F7570008115800082F580008545800083D
:102198006E580008584B2DE9F0415E688AB00F462A
:1021A8000025C6F3080485F31188BFF36F8F02F08A
:1021B8007F43B3F17F4F0DD102F00C03082B0BD1F5
:1021C8004E484F4B4F49C01AC008800140F00100EB
:1021D80002F0B2F82F4603E0120701D407460125A2
:1021E80000238DF80730E31E092B6BD8DFE803F0D6
:1021F80005595D3D6A6A6A6A6A61414B4FF0000899
:102208003E4E4149F61AF608B60146F00106304638
:1022180002F092F8384B8DF80780DC6A14F002045B
:1022280005D03A49304602F087F8002420E0DB6AFE
:102238005B001DD53649304602F07EF8354B1B78D9
:1022480033B10DF1070201213846FFF75DFE0EE0BC
:10225800314B1B782BB10DF107010120FFF7D2FE9E
:1022680005E02E4B1B889BB213B1FFF737FF0446DE
:102278009DF8073093B92022394602A802F05EF98A
:10228800099B9DB3C3F3080222B96FEA53236FEA8F
:102298004323099302A92046FFF7A4FD0AB0BDE82D
:1022A800F0810DF107020021CEE70DF107010020B2
:1022B800D4E71248124B1A49C01AC008800140F0EE
:1022C8000100B0E70E4B16F4F87F0C481549A0EB57
:1022D8000300154AA4F1100308BF0A46C0081349B1
:1022E800800140F0010002F027F89EE723F4FF7315
:1022F80023F00103CDE700BF00ED00E038510008EE
:1023080028510008C7580008F25800080959000861
:102318002A59000828ED00E029ED00E02AED00E048
:102328004959000899580008AE5800087F59000814
:10233800024A536943F010035361704700ED00E00F
:10234800044B9968586A884203D003494FF0805279
:102358000A607047BC03002404ED00E00023044831
:102368001021C2180133962B82F80013F9D1704757
:1023780000E100E008B50E4B9B68834207D1EFF3FC
:10238800058393B10B4A536843F08053536001F0BF
:1023980065FB4FF01003EFF3118083F31188BFF34F
:1023A8006F8FBDE8084002F0FFBA01F03FFD00BFA3
:1023B800BC03002400ED00E01FB5084B0121084ACA
:1023C80068460193074B0293074B039301AB0093B5
:1023D800064B00F0C1F805B05DF804FB00000024CE
:1023E800000000240000000000000B060000082484
:1023F8001FB5836E202201216846203B0193054BBF
:10240800CDE9022301AB009300F0B0F805B05DF808
:1024180004FB00BF00000B15F8B5DFF8B8C006468E
:10242800002710468F4216DA56F827E0DEF80440F7
:10243800002C44D0B3B1651E2C420DD021483A4639
:10244800214B2249C01AC008800140F0010001F068
:1024580073FF6FF01500F8BD1F2CEFD9DEF80020D0
:102468001542EBD1202CC2B2DEF80050DEF808008D
:1024780013D9B4F1004F12D8013CB4FA84F4C4F172
:102488001F0464000F2A44EA00040AD90D480E4BC1
:102498000F49C01AC0088001D7E70824F2E73E2494
:1024A800F0E725F01F0544F00104501CCCF8082083
:1024B800154345F01005CCF80C50CCF81040013706
:1024C800B0E700BF305100082851000896590008AD
:1024D800B959000890ED00E0034B05225A60BFF39C
:1024E8004F8FBFF36F8F704790ED00E0BFF35F8FA2
:1024F800014B00225A60704790ED00E013490868CC
:10250800102810B51ED8FFF7F1FF114C49680022BA
:10251800904201F10C0105D10E4B1870FFF7DCFF5A
:10252800002010BDA26051F80C3C23F01F03134398
:10253800013243F01003E36051F8043C43F0010317
:102548002361E5E74FF0FF30EBE700BFF0510008EB
:1025580090ED00E0FF03002410B5034C012322781E
:10256800FFF75AFF207010BDFF030024084A08B582
:1025780000231278FFF750FF10F1160F03D0054B18
:1025880000220F2800DD08BD986001301A61F8E7C5
:10259800FF03002490ED00E0014B1860704700BF76
:1025A8001C0000242DE9F3410C4611461E464768DD
:1025B800B1F5005FC26827D104F003024149043233
:1025C80093000F229A4042EA940202F00303023376
:1025D80051F82310130C93FAA3F3B3FA83F301EA27
:1025E800124203F01F0322FA03F3BA689A4209D190
:1025F800204601F045FF2046FEF7C6FF0021204691
:1026080001F04CFF00254EE0B1F5804F53D02E4924
:102618002046FEF7A7FF054600284FD1BF682B4884
:1026280000F0BCFE2A4903466A4603C982E8030053
:1026380099681846D1F800801146C04704F0030392
:10264800B6F5802F03F104034FEA83024FF00F031E
:1026580003FA02F343EA940303F003024FEA134137
:1026680091FAA1F14FEA8202B1FA81F102F1B04286
:1026780001F01F01D2F8080407FA01F120EA134318
:1026880041EA0301C2F8081411D0B6F5C02F10D0E2
:10269800B6F5003F14BF00210221204601F0FEFEDE
:1026A8002046FEF74FFF284602B0BDE8F081012121
:1026B800F3E70321F1E76FF02205F4E76FF00F0568
:1026C800F1E700BF00040058E7450008AD550008D1
:1026D80060510008C36810B544685860064800F0A7
:1026E8005DFE836804F10C011B689847002818BF39
:1026F8006FF0040010BD00BFAD55000801F1FF3CAC
:10270800BCF1050F2DE9F043154689B09946476895
:102718000FD968480A46684B6849C01AC008800142
:1027280040F0010001F008FE6FF0150009B0BDE8A7
:10273800F08393420AD9604B5E486149C01AC008C9
:10274800800140F0010001F0F7FDEDE73868B0F1D5
:10275800804F06D05B4B984203D0B2F5803F00F221
:10276800A680594B53F82C402DB9016A21EA04017F
:1027780001620020DAE7036A9DF8406034EA030347
:1027880006F0010605D1012C4FEA46065CD100226D
:102798006EE068464FF0010802F0F3F8602306FA8D
:1027A80008F66A4621463868CDF80C900496CDE9BB
:1027B80000380023069300F0C3FB60B13E4B3D4850
:1027C8004249C01AC008800140EA080001F0B4FD7F
:1027D8006FF00400AAE73B68012C1A6842F08002F7
:1027E8001A6013D0042C23D0102C23D0402C23D0D3
:1027F800B4F5807F22D0B4F5806F21D0B4F5805F26
:1028080020D0B4F5803F0CBF07200820304A03F1E0
:102818001801013D145C2F4A6658105C082282405A
:1028280032436250DD625A6942F001025A61A0E700
:102838004046EBE70220E9E70320E7E70420E5E765
:102848000520E3E70620E1E7042C24D0102C24D04F
:10285800402C24D0B4F5807F23D0B4F5806F22D0EB
:10286800B4F5805F21D0B4F5803F0CBF0722082261
:102878001949013D036A895C02228A408E40494613
:1028880023EA02031E43154B066253F82C3098477F
:102898003B68DD626DE70122EAE70222E8E70322EE
:1028A800E6E70422E4E70522E2E70622E0E76FF024
:1028B80022003BE74051000828510008305A000820
:1028C800455A0008000C004010530008745A0008CC
:1028D800235B0008355B00082C5B00085053000898
:1028E800F0B5C66889B045683D4805F1080700F0AD
:1028F80055FD836839461B689847041E0DDA394828
:102908002246394B3949C01AC008800140F00100FD
:1029180001F012FD204609B0F0BD314800F03EFD3F
:1029280083686A463946DB689847041E15DB304BD6
:1029380001A81B6902F004F8039B2A683360D5E9F3
:102948000401FFF75FF8041E0FDA26482246264BDB
:102958002849C01AC0088001D8E722482246224BDD
:102968002549C01AC0088001D0E701A802F000F884
:102978006B6801A92868ADF804300023CDE902335B
:10298800CDE9043300F078FA60B1174B6FF0040416
:1029980014481A49C01AC008800140F0010001F02B
:1029A800CBFCB7E72B68164A93420FD002F580623A
:1029B80093420BD002F57052934207D002F5806221
:1029C800934203D002F58062934203D15A6C42F4D9
:1029D80000425A641A68002442F001021A6099E71A
:1029E800AD55000840510008285100089E5A0008BB
:1029F80000440258E05A0008BE5A0008FE5A00086F
:102A080000000140C36837B50C464168586801AA00
:102A180051F8085B8368DB68984700280BDA0A4896
:102A28000A4B0B49C01AC008800140F0010001F0B0
:102A380083FC03B030BD019B03EB5403B3FBF4F3F9
:102A48009BB2EB60F5E700BF485100082851000829
:102A58003E5B00082DE9F04147680546C668B84660
:102A680058F8084B2F4800F099FC8368414670607D
:102A78001B6898478046002850D16B68D7E9060143
:102A88001A68FEF7BFFF002841DB23687A6923F044
:102A98000103022A2360236843F00C0323600FD04C
:102AA800012A36D052B12048204B21491B1ADB0895
:102AB8009B0143F0020001F03FFC4246104603E050
:102AC8004FF480524FF480602368024323F0805310
:102AD80023F4B0531A432260636823F440536360BD
:102AE8003B7C2BB16B681A68936843F4407393601E
:102AF80031682846FFF786FF236843F00103236007
:102B0800E3699A02FCD5E3695B02FCD50020BDE8C5
:102B1800F0814FF480524FF4C060D5E76FF00400A5
:102B2800F5E700BFAD5500082851000848510008D6
:102B3800615B00082DE9F8430A790D464368012ACC
:102B4800C6681C6800F08C80022A0CBF4FF48061B4
:102B5800002195F8059095F80680B9F1020F96BF07
:102B6800444B4FF4005E33F819E0B8F1020F7AD005
:102B7800B8F1040F0CBF4FF480530023EF79033AE8
:102B8800012F14BF4FF0000C4FF4407C012A6DD97F
:102B980019F0FD0F6AD0B8F1010F67D91FB3364A93
:102BA80094421ED0A2F54C4294421AD002F580629B
:102BB800944216D002F58062944212D002F58062E7
:102BC80094420ED002F5444294420AD0A2F51C4227
:102BD800944206D002F58062944202D0274A944279
:102BE80044D1012F42D1226822F0010222602268DA
:102BF80002F4C0628A4204D0276827F4C0670F43F2
:102C08002760626802F44052964505D0616821F455
:102C1800405141EA0E016160226802F010229A4296
:102C280004D0226822F010221A432260A36803F419
:102C380040739C4505D0A36823F4407343EA0C0312
:102C4800A36029683368994203D0FFF7DBFE2B683D
:102C580033602368002043F001032360BDE8F88354
:102C68004FF4C06175E74FF0805387E76FF022009B
:102C7800F4E700BF0854000800100140000C005899
:102C8800024B1868C0F34040704700BF0044025828
:102C9800024B1868C0F38000704700BF0044025818
:102CA800024B1868C0F30020704700BF0044025868
:102CB800354A936A03F00303012B2DE9F3410646D5
:102CC80055D0022B59D013B9FFF7E2FF08B90024F9
:102CD80004E013682D4CC3F3C103DC402A480023E9
:102CE800C6E90033B360816A076BC56AC1F305188A
:102CF80015F0010502D0456BC5F3CC05B8F1000FFE
:102D080032D0C36AC7F30807DB0307F101070BD505
:102D1800036B3A4641462046C3F3462301330093EA
:102D28002B4601F0DFFD3060174BDA6A91030BD5B3
:102D38001B6B3A4641462046C3F3064301330093D2
:102D48002B4601F0CFFD70600F4BDA6A52030BD5AA
:102D58001B6B3A4641462046C3F306630133009392
:102D68002B4601F0BFFDB06002B0BDE8F081FFF76F
:102D780097FF0028ABD0064CB0E7FFF781FF00288B
:102D8800A5D0044CAAE700BF004402580090D00325
:102D980000093D0000127A001FB5104A136903F0BC
:102DA8003803102B17D007D853B1082B0C4818BF7D
:102DB800002005B05DF804FB182B07D00020F8E7C9
:102DC80013680848C3F3C103D840F2E701A8FFF726
:102DD8006FFF0198EDE70448EBE700BF0044025895
:102DE80000093D000090D00300127A00044B054A08
:102DF8009B6903F00F03D35C03F01F03D8407047AF
:102E0800004402589E5B0008044B054ADB69C3F383
:102E18000213D35C03F01F03D840704700440258E4
:102E28009E5B0008044B054ADB69C3F30223D35CAD
:102E380003F01F03D8407047004402589E5B000807
:102E4800044B054A9B69C3F30213D35C03F01F03C9
:102E5800D8407047004402589E5B0008044B054A5E
:102E68001B6AC3F30213D35C03F01F03D8407047F7
:102E7800004402589E5B00082F4A0368904212D013
:102E8800B0F1804F0FD0A2F57C4290420BD002F5F2
:102E98008062904207D002F58062904203D002F52A
:102EA8007842904219D14A6823F070031343224AAA
:102EB80090421DD0B0F1804F1AD0A2F57C429042CA
:102EC80016D002F58062904212D002F580629042DC
:102ED8000ED002F5784290420AD0184A904207D0A4
:102EE80002F58062904203D002F58062904203D1DD
:102EF80023F44073CA68134303608B68C3620B886A
:102F080083620D4B98420FD003F5806398420BD033
:102F180003F57053984207D003F58063984203D0B5
:102F280003F58063984201D10B690363436943F059
:102F38000103436100207047000001400040014048
:102F4800B1F5805F30B500F00D810AD8102900F086
:102F58008480B1F5807F00F0C48001293BD0012036
:102F680030BDB1F5803F00F03081B1F5801FF6D15A
:102F7800036A116823F480130362036A446D23F41F
:102F8800001324F4E04444EA0124116943EA01539C
:102F9800516823F4801343EA0153A54988420FD0AE
:102FA80001F5806188420BD001F57051884207D045
:102FB80001F58061884203D001F58061884206D11D
:102FC8004168956921F4003141EA85214160D26860
:102FD8004465C2653EE0036A156823F00103036295
:102FE800036A4168846923F0020324F4803424F0DE
:102FF80073042C4315692B43556823F001032B43B5
:103008008B4DA8420FD005F58065A8420BD005F579
:103018007055A84207D005F58065A84203D005F58C
:103028008065A84212D1556923F0080321F4807104
:1030380043EA8503956823F0040343EA8503956909
:103048002943D56921F4007141EA4501D2684160FC
:10305800846142630362002082E7036A156823F0F3
:1030680010030362036A4168846923F0200324F093
:10307800807424F4E64444EA0524156943EA0513F8
:10308800556823F0100343EA0513694DA8420FD091
:1030980005F58065A8420BD005F57055A84207D004
:1030A80005F58065A84203D005F58065A84213D1CF
:1030B800556923F0800321F4806143EA85139568FC
:1030C80023F0400343EA8513956941EA8501D569F0
:1030D80021F4006141EAC501D268416084618263DC
:1030E800B8E7036A156823F480730362036A4168CA
:1030F800C46923F4007324F073042C43156943EA6C
:103108000523556823F4807343EA0523484DA842F4
:103118000FD005F58065A8420BD005F57055A8427B
:1031280007D005F58065A84203D005F58065A8425B
:1031380013D1556923F4006321F4805143EA8523B0
:10314800956823F4806343EA8523956941EA05116C
:10315800D56921F4005141EA4511D2684160C46142
:10316800C26377E7036A156823F480530362036A2E
:103178004468C16923F4005321F4E64141EA05217A
:10318800156943EA0533556823F4805343EA053348
:10319800274DA8420FD005F58065A8420BD005F54C
:1031A8007055A84207D005F58065A84203D005F5FB
:1031B8008065A84204D124F48044956944EA8514C2
:1031C800D2684460C161026444E7036A116823F469
:1031D80080330362036A446D23F4003324F07004DF
:1031E8000C43116943EA0143516823F4803343EAED
:1031F80001430F4988420FD001F5806188420BD006
:1032080001F57051884207D001F58061884203D0EA
:1032180001F58061884206D14168956921F48031C1
:1032280041EA05214160D2684465816D826511E7F4
:103238000000014020B32A4A936903F44043B3F5E0
:10324800404F1FD1274B284A0344934242D9274B6A
:10325800274A034493423FD9264B984210D800236B
:1032680025490A6822F00F021A430A600A6802F028
:103278000F02934232D00A6802F00F0293422DD017
:1032880001207047936903F44043B3F5004F0ED112
:103298001A4A1B4B02449A421AD91A4A02449A42C1
:1032A80018D9194A02449A4216D90133D5E7174A60
:1032B800174B02449A4209D9164A02449A4207D93E
:1032C800154A02449A4205D9144AEBE70423C7E792
:1032D8000323C5E70223C3E70123C1E700207047A2
:1032E80000480258FFC4A7F7FFE0F5057FE2D3FBCB
:1032F8007F1D2C04801D2C0400200052BF4C2AF690
:10330800BF3B47037F8871F93FC4B8FCFF6A45F5A6
:103318003FA5AE023F10F4F77FB5A2FABF5A51FDA0
:10332800F8B5104B104F53F82050013053F8206077
:10333800AE4200D8F8BDD5E900342046984770B1B0
:103348006CB1E41B094A01232411610904F01F042C
:1033580052F8210003FA04F4044342F821400835E6
:10336800E6E700BFAC530008340000243401002411
:10337800084BC01A084B0011420900F01F0053F80F
:103388002220012303FA00F010420CBF1846002047
:10339800704700BF3400002434010024114970B57F
:1033A8000546114C0E468C4204D10F4CB4420AD14A
:1033B800002414E02046FFF7DBFF10B12368AB427E
:1033C8000DD01034EFE72046FFF7D2FF08B91034CC
:1033D800ECE72168284601F0A5F80028F7D1204637
:1033E80070BD00BF340100243400002410B5044629
:1033F800FDF766FE0648074B07491B1ADB089B01C9
:1034080043F0010000F098FF204601F0C4FA00BF25
:103418002851000838510008AE5B00082DE9F34137
:1034280006460F464FF01003EFF3118883F3118817
:10343800BFF36F8F00F056FC204C214B042E4FF049
:1034480000020546A4EB030494BF1E4B1E4B4FEA33
:10345800D40498BF53F8263000923246A4011B4981
:1034680044F0010000F068FF47B1FB69C3F30803AB
:1034780023B1174944F0010000F05EFF44F0010455
:103488002DB1284601F011FB08B1037803B91148A2
:1034980000F065FF2A4603460F49204600F04CFF1E
:1034A80039463046FFF7A2FF88F31188BFF36F8FC4
:1034B800284602B0BDE8F041FEF75CBF385100086D
:1034C80028510008C4530008BD5B0008D35B0008FE
:1034D800FB5B0008CB5B00081C5C00080748002168
:1034E800074A08B5121A01F054F80648064A00219E
:1034F800121ABDE8084001F04CB800BF480100248A
:1035080004040024000000200000002009480A4AA2
:103518000A49121A08B501F011F8094A09490A4876
:1035280001F00CF809480A4A0A49121ABDE808408D
:1035380001F004B80000002448010024D05C000811
:1035480000000000D05C00080000002400000020FB
:1035580000000020185E000808B501220B4B02206D
:103568001A70FFF7DDFE0A4A0A490B4800F0E0FD31
:103578000320FFF7D5FE00F00DFCFDF7CBFA074A54
:10358800137B23F00103137308BD00BF000400245C
:10359800585500087E5C00089F5C0008C80100249C
:1035A8002DE98048A7B0DFF8F090FDF72BFD89F3EF
:1035B80008880024304DF023304EDFF8E0A04FF0AB
:1035C800010B85F82230EC772C766C76AC766B6A3A
:1035D8002B4F43F4E0236B62FEF7AAFEFEF7EEFBE7
:1035E8004FF0FF332046AB62EB6240F20113254DEA
:1035F800ADF8243006ABAB60CDE92044FFF790FE70
:103608000120FFF78DFE00F0F3FA1F4B6E624FF4B6
:1036180080621E493046059353460094CDE9034B1A
:10362800CDE9014400F084FB737B8046304623F0EB
:103638000403737301F0E4F90F234FF4A0721449E3
:103648003846CDE90243CDE904B4124BCDE9005424
:1036580000F06EFB7B7B5246414623F00403304664
:10366800EF607B7305F11C032C76C5F80490C5E95F
:103678000733FEF789FB00BF00ED00E0C801002416
:1036880048010024BC030024C65C00082004002470
:1036980040080024434B0008C0110024613500088D
:1036A80070B50E4B0E4CA34201D3002070BDD3E978
:1036B800030141EA000212F003020BD19D685A612E
:1036C800AA4201D11C33EEE75E6901320E605961EE
:1036D8000144F5E76FF01500E8E700BF3801002462
:1036E8003801002410B5084C23685BB1FEF784FA52
:1036F800034620680021054A0344BDE81040536191
:1037080001F0FBB910BD00BFF4030024BC03002482
:1037180010B54FF01003EFF3118483F31188BFF352
:103728006F8F0022074B5A610A235843064B1860D3
:10373800064B1960FFF7D6FF84F31188BFF36F8F2C
:1037480010BD00BFBC030024F4030024F0030024D0
:1037580049B9EFF3058030B9054B5A6A9B689A421C
:1037680001D0FEF767BA81F31188BFF36F8F7047F6
:10377800BC0300244FF01003EFF3118183F3118889
:10378800BFF36F8F044B9A68D37B013BD37381F3EC
:103798001188BFF36F8F7047BC030024094B03F1F6
:1037A8002802824205D19B688B4202D14B7BDB0603
:1037B80006D1D1E9003213605A600023C1E9003311
:1037C800704700BFBC03002438B5124C014623697A
:1037D800A2680BB1E5680CE004F1280001F006F9D5
:1037E800537B0546980644BF43F008035373002DE6
:1037F800F0D049B9537BDB0606D1AB6923B9D3892D
:103808007F2B01D9626238BD954201D0FFF76AFF6C
:103818006562F8E7BC03002410B54FF01003EFF31E
:10382800118483F31188BFF36F8F084B00209A68C7
:10383800D37B0133D373FFF7C7FF84F31188BFF33A
:103848006F8FBDE8104001F0BBB800BFBC03002477
:1038580070B490F90D20437B002A2CDBDB062AD1BB
:10386800836943BB154A114651F8284F8C4218BF4B
:103878002346D46A002B38BF0023B3B190F90E60F9
:1038880093F90E50AE4203DBA3420ED01B68F4E757
:103898005A68C0E9003210605860437B63F07F03C8
:1038A8004373002070BCFFF78FBFC0E90014D36AD0
:1038B8001860D062F1E770BC704700BFBC030024F9
:1038C80010B54FF01002EFF3118482F31188BFF3A3
:1038D8006F8F427B510704D484F31188BFF36F8F35
:1038E80010BD22F004024273FFF7B2FF21460248DE
:1038F800BDE81040FFF72CBF0104002470B590F913
:103908000D300146002B02DA1748FFF747FF174A28
:103918001046D46A50F8283F834208BF0023002B82
:1039280038BF0023D3B191F90E6093F90E50AE421F
:1039380003DBA34212D01B68F4E75868C1E90030E2
:10394800016059604B7B906863F07F034B73431AA7
:103958005842BDE870405841FFF736BFC1E900043E
:10396800D36A1960D162EDE7E4030024BC030024A4
:10397800014670B54FF01003EFF3118483F31188FB
:10398800BFF36F8F164B174A98681568A8421D46F3
:1039980006D1FFF7A7FE84F31188BFF36F8F70BDC0
:1039A80000261660104A1268BAB1C2897F2A14D854
:1039B800427BD20611D10D4A90F90E6012689642E8
:1039C8000BDB0B4A904208D05A698A4202DCFFF7A7
:1039D80095FFDEE7521A5A61DDE700236B61DAE7EB
:1039E800BC030024EC030024F4030024F0030024A7
:1039F8004801002470B50446183001F058F84FF01B
:103A08001003EFF3118683F31188BFF36F8F94F9D6
:103A18000D30002B07DA21460E48FFF7BFFE637B07
:103A280003F07F036373637B0B4D43F01003A868B7
:103A38006373031B58425841FFF7C6FE86F311888B
:103A4800BFF36F8FAB68A34203D1BDE8704000F0AD
:103A5800B7BF70BDE4030024BC0300242DE9F04186
:103A680004464FF01003EFF3118283F31188BFF37C
:103A78006F8F437B13F0280F05D082F31188BFF3B3
:103A88006F8FBDE8F08143F02003437382F3118800
:103A9800BFF36F8F183001F00AF84FF01003EFF3FF
:103AA800118683F31188BFF36F8F637BD80616D115
:103AB800A269A2B9190607D521462648FFF76EFE66
:103AC800637B03F07F036373234B9868021B5042A8
:103AD8005041FFF779FE04F1300800271DE09B07ED
:103AE800F9D52146A068FFF759FE637B23F002034E
:103AF80063730023A360EEE705F1180000F0D7FF19
:103B0800A8682946FFF74AFE6B7B2846AF6023F07A
:103B18000203EF676B73FFF79BFE256B454501D0EA
:103B2800002DE9D10C4B9A680C4B9A4202D1012026
:103B3800FFF74AFE637B43F008036373236E86F343
:103B48001188BFF36F8F002B9BD02046BDE8F04152
:103B5800184700BFE4030024BC03002448010024E4
:103B680008B590F90D300146002B06DA0748FFF733
:103B780015FE4B7B03F07F034B73054B9868431A84
:103B880058425841BDE80840FFF71EBEE403002430
:103B9800BC030024F8B5054600F0C9FF2C184FF007
:103BA8001003EFF3118783F31188BFF36F8F0D4E66
:103BB8000D4BB0681860FFF7D3FFB0682A460B4971
:103BC800EB17183000F092F9B2683846537B43F08F
:103BD80010035373FEF72EF800F0A9FF201A20EA0D
:103BE800E070F8BDBC030024EC030024294A000857
:103BF800044B002103F128020846C3E90A22FFF713
:103C080087BD00BFBC030024F8B5244C244BA26830
:103C18009A4230D04FF01003EFF3118583F31188E7
:103C2800BFF36F8F04F12800A168FFF7B7FDA36AFF
:103C3800A268834208BF0023E16A002B38BF002333
:103C48002BB392F90E7093F90E60B74203DB8B42E7
:103C58001DD01B68F4E75968C2E900310A605A6050
:103C6800537B012063F07F035373FFF7ADFD85F3AA
:103C78001188BFF36F8F4FF01003EFF3118083F3B8
:103C88001188BFF36F8FBDE8F840FDF7D3BFC2E9D5
:103C98000001E36A1A60E262E2E700BFBC030024A5
:103CA800480100240B46013308BFB0F1FF3F10B5AF
:103CB80006D10B4B9868FFF79DFE4FF0FF3010BD03
:103CC800044640B9FFF7A0FF0A2200232046E11767
:103CD800FCF75CFDF3E7FFF75DFF0446F4E700BF80
:103CE800BC030024014B9868704700BFBC03002444
:103CF80038B504464FF01003EFF3118583F31188AC
:103D0800BFF36F8F00F0ACFE48B10022C26700F02D
:103D180077FE29460548BDE83840FFF719BDD4E9C4
:103D280002329A4218BF0133A360F2E7010400246B
:103D38002DE9FF4100F130050F46D61D0C9A2037BA
:103D4800044626F00706C0E90C550E9D06F120082A
:103D580005730425884445730D9D85730025C0E9C6
:103D68001A76C5730567C0E9065502920B9A019247
:103D78000A9A00924246FDF7D7FF054B9B68C4E9B3
:103D8800175503B15B6F4046636704B0BDE8F08127
:103D9800BC030024F0B5224F87B0224D3E46BD42F9
:103DA80005F130040BD31F4C0A251F4FFFF7E2FC27
:103DB800B44221D307B0BDE8F040FFF72DBD54F859
:103DC800043C059354F8103C049354F8143C0393B2
:103DD80054F8183C029354F81C3C019354F8203CC6
:103DE800009354E90A2354E90C01FFF7A1FF54F8A2
:103DF800303CDD652546D2E7626A531C09D022EAC9
:103E0800E272206882FB052352EA030103D1FFF71F
:103E180057FD3034CCE73946183000F067F8F8E73A
:103E28003801002438010024294A000808B54FF059
:103E38001003EFF3118483F31188BFF36F8F044BE2
:103E480098681861FFF7D6FD2046FDF7F3FE00BF1E
:103E5800BC030024034B1B680BB9FDF7CDBE002043
:103E6800704700BFF8030024036830B568B10A4AF8
:103E78005268904209D043B1D3E90421D0E90445FE
:103E8800121945EB0101C3E90421426813605A6025
:103E98000023C0E9003330BD2C00002438B5114B95
:103EA8001C689C4208BF0024FFF7D4FF0546ACB14C
:103EB800D4E90401401B61EBE571B0F1004F71F1E9
:103EC80000030BDA002871F1000300DA0020064B2A
:103ED8005B6913B19842A8BF184638BD6FF000401F
:103EE800F5E700BF2C000024BC0300242DE9F74FA0
:103EF8000191194682464B1C08BFB2F1FF3F6BD0B7
:103F0800541C6FF001034FF0FF3B41F10005B3EB88
:103F180004086BEB0509B8F1000F79F100030FDB1A
:103F2800FFF798FF334A6FF00103D2E9001C5B1AD0
:103F38006BEB0C021E1B62EB0507341A67EBE0758E
:103F4800019BCAF808304FF01003EFF3118683F392
:103F58001188BFF36F8FFFF77DFF012C75F1000308
:103F6800254BBCBF012400251A68241845EBE075D1
:103F78009A42CAE9044501D05F6852B95A68CAF83A
:103F88000030CAF804205A68C2F800A0C3F804A098
:103F980014E0D2E90489DAE90445444575EB0901DE
:103FA8001DDAB8EB040069EB0501C2E904015168A8
:103FB800CAE90021C1F800A0C2F804A01A689A4210
:103FC80006D0924504D1FFF769FF0021FDF7B0FD47
:103FD80086F31188BFF36F8F03B0BDE8F08FB4EBA1
:103FE800080065EB0901BA42CAE90401C6D01268A3
:103FF800C3E700BF480200242C0000242DE9F74F36
:104008000646FFF7B5FC4FF01003EFF3118483F376
:104018001188BFF36F8FDFF8B4A02B4DDFF8B0B075
:1040280051462E60D5F800C0DBF8000062465845BE
:104038004FEAE273DAE90089CDE900230DD060B1D7
:10404800D0E90467B445BB411DDA009BB6EB030C0D
:10405800019B67EB0306C0E904C6009B002613EB2F
:104068000802019B2E6043EB0903C1E90023FFF717
:1040780015FF3146FDF75CFD84F31188BFF36F8FA0
:1040880003B0BDE8F08F18EB06084FF000024FF0C0
:10409800000349EBE679ACEB0606C0E90423CAE95C
:1040A80000892E60FFF7E0FE84F31188BFF36F8F5D
:1040B800836898474FF01003EFF3118483F3118856
:1040C800BFF36F8F0149ADE7F803002448020024CD
:1040D8002C00002410B54FF01003EFF3118483F384
:1040E8001188BFF36F8FFDF787FD064BD3E90023D7
:1040F800121843F1000384F31188BFF36F8F104641
:10410800194610BD4802002438B5064C064DAC428D
:1041180001D3002038BDD4E901122046143400F040
:1041280042FDF4E7380100243801002400207047DC
:104138000FB407B504A951F8040B019100F0F6F883
:1041480003B05DF804EB04B0704704460846114616
:104158001A4608B5A047FFF7C5FDFEF70BF98368B7
:1041680000EBC101B3F5004F2CBF51F8220031F824
:104178001200704700EBC1018068B0F5004F2CBFFA
:1041880041F8223021F812307047012208B5FFF7B4
:10419800E6FF400808BD836800EBC101B3F5004F96
:1041A80008D34B681AB143F001034B60704723F002
:1041B8000103FAE74B881AB143F001034B807047BB
:1041C80023F00103FAE753000122FFF7D3BF806809
:1041D8000131B0F5004F2CBF02200120081AB0FAB7
:1041E80080F0C0F11F0070472DE9F04104460D46EC
:1041F800FFF7CBFF0146A368B3F5004F01D30128B1
:1042080035D02046FFF7E3FF04EB800216699EB91C
:104218000123294603FA00F0E36803432046E360DC
:104228002B4615610222FFF7A5FF032229462046E7
:10423800BDE8F041FFF79EBF022231462046FFF756
:104248008EFF02220346074629462046FFF792FFC3
:104258003346032229462046FFF78CFF03223946BE
:104268002B462046FFF786FF02223146DFE7BDE8EE
:10427800F081B2F5802FF8B52CBF08250425CC1D98
:104288000023551B002224F007040D440460204637
:1042980025F007052D1BC4E90023ED080023294656
:1042A800A560E360FFF793FF04F110028600411C4C
:1042B80018461B36F6088B4229DB32462046AF1BD0
:1042C8000021FFF780FF204601220021FFF763FF4E
:1042D8003A463146FFF777FF3346314620460022FB
:1042E800FFF748FF294620460022FFF76CFF3B46B0
:1042F800294620460022FFF73DFF29462046012295
:10430800FFF749FF3146BDE8F840FFF76DBF0133BD
:1043180042F8040BCFE7704708B500F00CFC0A22FE
:104328000023FCF733FA08BD0020704700230A4633
:1043380001461846FCF738BE0EB403B503AA00239D
:1043480052F8041B0192FCF72FFE02B05DF804EB53
:1043580003B0704708B5FCF789FE002008BD704718
:1043680007B5D1E9003201900121526801A89847A8
:10437800002003B05DF804FBF8B506460D46144668
:104388001F46214628463A46B047241A0544F8D124
:10439800F8BD4268816810B504460068D2E9002378
:1043A800FFF7EAFF636800221A6010BD2DE9F843A1
:1043B80004460E4615464FF001084FF0B04702F18B
:1043C8000409B44201DBBDE8F88308FA04F3D7F81E
:1043D800882033EA020208D1C7F8883055F834300B
:1043E8001BB159F83410204698470134E9E7C268F0
:1043F80001210020FFF7DABFC26802210120FFF780
:10440800D5BFC26803210220FFF7D0BFC2680421CC
:104418000320FFF7CBBFC26805210420FFF7C6BF02
:10442800C2680A210520FFF7C1BFC26810210A200F
:10443800FFF7BCBF0022062008B51146FDF75EFC59
:10444800002207201146FDF759FC002208201146DA
:10445800FDF754FC002209201146FDF74FFC00220D
:104468000A201146FDF74AFC002217201146FDF7E5
:1044780045FC002228201146FDF740FC002008BD1D
:104488001F280ADC4FF0B0410122D1F8803002FA2F
:1044980000F023EA0000C1F880007047032910D813
:1044A800DFE801F0021019264FF0B0430122196825
:1044B80002FA00F021EA000119605A6822EA0000B5
:1044C80058607047012303FA00F04FF0B0431A68B0
:1044D80002431A60F1E7012303FA00F04FF0B043FA
:1044E8005A6802435A601A6822EA00001860704746
:1044F800012303FA00F04FF0B0431A6802431A6030
:104508005A681043DCE700210120FDF76BBC014627
:104518000068FDF767BC08B5FDF79CFCBDE80840DE
:10452800FDF70EBF431E013913F8012F11F8010FD3
:10453800824201D1002AF7D1101A7047F0B581EAFA
:1045480000040346A5070BD0013B0A4491421BD146
:10455800F0BD002AFCD011F8014B013A03F8014BD9
:104568009C07F6D122F003041D1F96080F19B942C3
:1045780005D16FF00305234405FB0622E4E751F853
:1045880004CB45F804CFF2E711F8014B03F8014FCB
:10459800DCE7C9B2034670B59C0711D141EA012492
:1045A80022F0030644EA04451E449408B3420DD1A0
:1045B8006FF0030505FB04221A44934209D170BD2C
:1045C800002AFCD0013A03F8011BE5E743F8045B35
:1045D800ECE703F8011BF0E74FF0FF3070470B469C
:1045E800896870B5A9B10C6801255E68002C05FAC8
:1045F80000F538BF00248A682A4002D04B6830464C
:10460800984734B123682146002B38BF00231C4645
:10461800F1E770BD436800205B681B690B60704759
:1046280043685B68586942400A40424000205A612A
:104638007047436800205B689961704743680904C4
:1046480000205B6899617047436800205A68536985
:104658004B4053617047C368986830B558B100241F
:10466800814213D108685CB9DC689860A14200D126
:10467800D8600020086072B9002030BD2846EFE7F6
:104688002060D868814208BFDC60F2E7056804460C
:10469800002DF3D13AB19A680A60D8689960002869
:1046A800EAD1D960E9E76FF01500E6E72DE9F041B6
:1046B80001244668154602F0300C8C40C2F3801283
:1046C800BCF1200F26EA040602FA01F242EA0602C9
:1046D80004FA01F6426006EB460ED0F80880C5F3EE
:1046E800C112C5F341256FEA0E0706FB02F228EA5C
:1046F8000E0806FB05F542EA08028260C26822EA53
:104708000E0245EA0205C5600DD1072915DC06FA37
:1047180001F2046A02FA01F1C1EB0112594324EAD9
:1047280002021143016202684FEA1C1317407343E7
:104738003B4303600020BDE8F081220A416A5243EE
:104748005243C2EB02145A4321EA04010A4342626B
:10475800E9E738B513460C4645689A0518D5990710
:104768000FD55A072ED55022D9060CD542F400721F
:1047780019051DD45B0514D50121A140FFF75EFF83
:104788000FE01022F0E79906F2D542F48062EFE7D5
:10479800D90512D5DA0612D413F0200218BF4FF447
:1047A8008062002321466868FFF780FF002038BD3B
:1047B80001236968A3408B61F3E73022F1E74FF4E6
:1047C8000072EEE76FF02200F1E741637047816302
:1047D8007047C163704701647047836D8165704796
:1047E800C1657047436810B55968C4680020013135
:1047F8002368B3FBF1F3C2E9003010BDC3681B683E
:104808000B6043681A68136803F4C063B3F5806FDC
:1048180028D0A3F5C060434243410B71536803F4A9
:104828004053B3F5805F1FD0B3F5405F1ED0002B17
:1048380014BF032301234B71136803F01023B3F54E
:10484800805F15D0B3F1805F14BF032302238B71FF
:104858000020936803F44073A3F540725342534118
:10486800CB7170470223D8E70023E4E70223E2E78D
:104878000423ECE743681B68DA691206FCD540227A
:104888001A629962704743681B68D869DA69C0F38D
:10489800C000D207DA6948BF40F00200910748BF5C
:1048A80040F00400C20701D508221A62810701D529
:1048B80001221A62420701D502221A6204221A62F0
:1048C800704743681B68DA69100701D508221A6225
:1048D800DA69920603D55B6A00200B7070474FF0C7
:1048E800FF307047F8B50546184617460E46FBF7E1
:1048F80085FD4FF06451FBF7D9FD04463846FBF7B8
:104908007DFD01462046FBF7C9FC04462846FBF717
:1049180075FD05463046FBF771FD01462846FBF755
:1049280079FE01462046FBF7C1FD04460698FBF7D1
:1049380065FD01462046FBF76DFEFBF707FFF8BD56
:1049480010B50446FEF728FA2060FEF74FFAA0607B
:10495800FEF75AFAE060A068FEF764FA2061A068E2
:10496800FEF76EFA6061A068FEF778FAA06110BDE4
:1049780000234FF0FF32038043600361C0E9022344
:1049880070470023C0E90033C0E90233C0E90433AB
:10499800C0E9063370474FF01002EFF3118382F33A
:1049A8001188BFF36F8FFEE7034620B9EFF3058246
:1049B8000AB9FDF73FB983F31188BFF36F8F7047CA
:1049C8004FF01003EFF3118083F31188BFF36F8F5B
:1049D800FFF7EABF0146806808B5FEF7DFFE4B7BAC
:1049E80023F002034B7300238B6008BD0346006865
:1049F800834203D0002838BF00207047002070474A
:104A080010B54FF01003EFF3118483F31188BFF34F
:104A18006F8FFEF71DFF84F31188BFF36F8F10BDF2
:104A280070B504464FF01003EFF3118683F3118835
:104A3800BFF36F8F50F8103CA0F1180513B128464A
:104A4800FFF7C8FF14F80B3C284623F0140304F8BA
:104A58000B3CFEF7FDFE86F31188BFF36F8F70BD28
:104A680038B54FF01003EFF3118283F31188BFF3C9
:104A78006F8FFFF7BBFF044682F31188BFF36F8F78
:104A880088B14FF01003EFF3118583F31188BFF35A
:104A98006F8FFFF79FFF85F31188BFF36F8F04F1C6
:104AA800180000F004F8204638BD0020704710B503
:104AB8004FF01002EFF3118482F31188BFF36F8F68
:104AC80003683BB1FFF7D0F9002084F31188BFF3E6
:104AD8006F8F10BD6FF01500F7E710B54FF010039A
:104AE800EFF3118483F31188BFF36F8FFFF7D6F9C3
:104AF80084F31188BFF36F8F10BD70B504460D465F
:104B08004FF01003EFF3118683F31188BFF36F8F13
:104B1800FFF7C4F9012805DDA04203DD2946204638
:104B2800FDF706F886F31188BFF36F8F70BD08B5DF
:104B3800FFF7D0FA08BDFFF7CDBA38B5044600250F
:104B48004FF01002EFF3118382F31188BFF36F8FD8
:104B5800206988B1256183F31188BFF36F8FFEF751
:104B68007DFF4FF01003EFF3118083F31188BFF33B
:104B78006F8FFFF719FFE3E783F31188BFF36F8F98
:104B88004FF01002EFF3118382F31188BFF36F8F98
:104B9800FFF7A3FF01210228D8BF0846FFF7ADFFA2
:104BA800FDF712F9CCE710B400F10C04C0E9034496
:084BB80010BCFFF75EBB704763
:084BC00004BCFF7F01000000AE
:104BC800D90E000800000000A117000834000024D6
:104BD800A93600080000000011410008000000008C
:104BE80005250008000000003D440008440000249A
:104BF8005D2A000854000024F91400080000000091
:104C0800011B0008640000245D4300080000000048
:104C1800DD26000874000024DD2600088400002436
:104C2800DD26000894000024DD260008A4000024E6
:104C3800DD260008B4000024DD260008C400002496
:104C4800DD260008D4000024DD260008E400002446
:104C5800DD260008F4000024DD26000804010024F5
:104C6800DD26000814010024E92800082401002496
:104C7800000000000F450008000000000F45000874
:104C8800000000000F450008000000000F45000864
:104C9800000000000F450008000000000F45000854
:104CA80044000024F743000844000024014400089D
:104CB800440000240B440008440000241544000864
:104CC800440000241F440008000000000F450008AD
:104CD800000000000F450008000000000F45000814
:104CE800000000000F450008000000000F45000804
:104CF800000000000F450008000000000F450008F4
:104D0800000000000F450008000000000F450008E3
:104D1800000000000F450008000000000F450008D3
:104D2800000000000F450008440000242944000842
:104D3800000000000F450008000000000F450008B3
:104D4800000000000F450008000000000F450008A3
:104D5800000000000F450008000000000F45000893
:104D6800000000000F450008000000000F45000883
:104D7800000000000F450008000000000F45000873
:104D8800000000000F450008000000000F45000863
:104D9800000000000F450008000000000F45000853
:104DA800000000000F450008000000000F45000843
:104DB8004400002433440008000000000F450008A8
:104DC800000000000F450008000000000F45000823
:104DD800000000000F450008000000000F45000813
:104DE800000000000F450008000000000F45000803
:104DF800000000000F450008000000000F450008F3
:104E0800000000000F450008000000000F450008E2
:104E1800000000000F450008000000000F450008D2
:104E2800000000000F450008000000000F450008C2
:104E3800000000000F450008000000000F450008B2
:104E4800000000000F450008000000000F450008A2
:104E5800000000000F450008000000000F45000892
:104E6800000000000F450008000000000F45000882
:104E7800000000000F450008000000000F45000872
:104E8800000000000F450008000000000F45000862
:104E9800000000000F450008000000000F45000852
:104EA800000000000F450008000000000F45000842
:104EB800000000000F450008000000000F45000832
:104EC800000000000F450008000000000F45000822
:104ED800000000000F450008000000000F45000812
:104EE800000000000F450008000000000F45000802
:104EF800000000000F450008000000000F450008F2
:104F0800000000000F450008000000000F450008E1
:104F1800000000000F450008000000000F450008D1
:104F2800000000000F450008000000000F450008C1
:104F3800000000000F450008000000000F450008B1
:104F4800000000000F450008000000000F450008A1
:104F5800000000000F450008000000000F45000891
:104F6800000000000F450008000000000F45000881
:104F7800000000000F450008000000000F45000871
:104F8800000000000F450008000000000F45000861
:104F9800000000000F450008000000000F45000851
:104FA800000000000F450008000000000F45000841
:104FB800000000000F450008000000000F45000831
:104FC800000000000F450008000000000F45000821
:104FD800000000000F450008000000000F45000811
:104FE800000000000F450008000000000F45000801
:104FF800000000000F450008000000000F450008F1
:10500800000000000F450008000000000F450008E0
:10501800000000000F450008000000000F450008D0
:10502800000000000F450008000000000F450008C0
:10503800000000000F450008000000000F450008B0
:10504800000000000F450008000000000F450008A0
:10505800000000000F450008000000000F45000890
:10506800000000000F450008000000000F45000880
:10507800000000000F450008000000000F45000870
:10508800000000000F450008000000000F45000860
:10509800000000000F450008000000000F45000850
:1050A800000000000F450008000000000F45000840
:1050B800000000000F450008000000000F45000830
:1050C800000000000F450008000000000F45000820
:1050D800000000000F450008000000000F45000810
:1050E800000000000F450008000000000F45000800
:1050F800000000000F450008000000000F450008F0
:10510800000000000F450008000000000F450008DF
:10511800000000000F450008000000000F450008CF
:10512800165500080300000092590008030000000B
:10513800CB5C000803000000195B000804000000B5
:08514800935B00080300000066
:10515000905100085C0200249155000801000000F5
:105160000B00000002000000000000006A5500086B
:105170007255000800000000000000000000000060
:105180007A5500087E5500088255000886550008AB
:1051900000000000DD140008BD140008000000003D
:1051A00099140008A514000875140008640200246E
:1051B000FE030024010000000090D00300093D0020
:1051C00000127A000100000002000000040000004C
:1051D0000800000010000000200000004000000057
:1051E0008000000000010000000200000004000038
:1051F00002000000F851000800000008DF59000814
:105200002800020700000024E759000824000B11C1
:10521000FFFF00000000025800000000070000002F
:1052200001000000FFFF0000000402580100000020
:105230000700000002000000FFFF00000008025805
:10524000020000000700000004000000FFFF000053
:10525000000C0258030000000700000008000000D6
:10526000FFFF0000001002580400000007000000CB
:1052700010000000FFFF00000014025805000000AD
:105280000700000020000000FFFF00000018025887
:10529000060000000700000040000000FFFF0000C3
:1052A000001C0258070000000700000080000000FA
:1052B000FFFF000000200258080000000700000067
:1052C00000010000FFFF0000002402580900000058
:1052D0000700000000020000FFFF00000028025845
:1052E0000A00000007000000000400005B470008FF
:1052F0001D460008294600083B46000845460008B0
:1053000051460008AD2500085F4600080000000077
:10531000010000001000000000010000001000006B
:105320000000010000001000021E0000000000004C
:10533000001800401027000002000000400000009C
:10534000285300080100000005270008ED47000869
:10535000D3470008D7470008DB470008DF470008AD
:10536000E3470008E9470008073800000002000092
:105370000739000000000000004800400000000065
:105380000200000000000400000000000000000017
:105390006853000802000000CB4800087D48000860
:1053A0008F4800083D2B000805480008C84B00083E
:1053B000084C0008104C0008784C0008784C000895
:1053C000F5FFFFFF345C0008425C0008565C0008F3
:1053D000655C0008715C0008060007000800090011
:1053E0000A001700170017001700170028002800F0
:1053F00028002800280028000200040008001000EF
:1054000040008000000100020010000000305057F2
:105410004D2D626173656420626C696E6B790A0060
:1054200050574D5F3132004572726F723A20646995
:10543000646E27742066696E642025732064657627
:105440006963650A0043616C6962726174696E67C1
:1054500020666F722064657669636520257320631A
:1054600068616E6E656C2025642E2E2E0A004572D2
:10547000726F723A2050574D2064657669636520DB
:10548000257320646F6573206E6F74207375707060
:105490006F7274206120706572696F64206174207E
:1054A0006C656173742025750A00446F6E65206316
:1054B000616C6962726174696E673B206D617869C5
:1054C0006D756D2F6D696E696D756D207065726992
:1054D0006F64732025752F257520757365630A0029
:1054E0004572726F722025643A206661696C65644A
:1054F00020746F207365742070756C7365207769F4
:105500006474680A003031323334353637383961E3
:105510006263646566006C6F67001B5B306D00251D
:10552000733A200025732E005B2530386C755D20A2
:10553000005B253032643A253032643A25303264DB
:105540002E253033642C253033645D200025730014
:105550003C25733E20000D0A0025303278200020C3
:105560002020007C002563000D001B5B313B3331A4
:105570006D001B5B313B33336D00657272007772D7
:105580006E00696E660064626700554152545F3375
:10559000006C6F675F6261636B656E645F756172FB
:1055A000740073746D33322D657874690073746D93
:1055B00033322D6363000201010101010101040185
:1055C000010101010101087379735F636C6F636B03
:1055D0000072302F61313A20203078253038782021
:1055E0002072312F61323A202030782530387820EF
:1055F0002072322F61333A202030782530387800FD
:1056000072332F61343A2020307825303878207278
:1056100031322F69703A2020307825303878207266
:1056200031342F6C723A20203078253038780020C1
:10563000787073723A2020307825303878004661CF
:10564000756C74696E6720696E73747275637469C2
:105650006F6E206164647265737320287231352F18
:105660007063293A20307825303878002A2A2A2A8F
:105670002A204D5055204641554C54202A2A2A2A8A
:105680002A002020537461636B696E672065727213
:105690006F722028636F6E74657874206172656123
:1056A000206D69676874206265206E6F7420766172
:1056B0006C696429002020556E737461636B696E98
:1056C00067206572726F720020204461746120410E
:1056D00063636573732056696F6C6174696F6E00E4
:1056E00020204D4D46415220416464726573733AE7
:1056F0002030782578002020496E737472756374A9
:10570000696F6E204163636573732056696F6C61C6
:1057100074696F6E002020466C6F6174696E672D2E
:10572000706F696E74206C617A792073746174652E
:1057300020707265736572766174696F6E20657230
:10574000726F72002A2A2A2A2A2042555320464183
:10575000554C54202A2A2A2A2A0020205374616397
:105760006B696E67206572726F72002020507265DF
:10577000636973652064617461206275732065726A
:10578000726F72002020424641522041646472656B
:1057900073733A2030782578002020496D70726547
:1057A000636973652064617461206275732065723A
:1057B000726F72002020496E737472756374696F22
:1057C0006E20627573206572726F72002A2A2A2A0F
:1057D0002A205553414745204641554C54202A2AFA
:1057E0002A2A2A0020204469766973696F6E206234
:1057F00079207A65726F002020556E616C69676E42
:105800006564206D656D6F72792061636365737384
:105810000020204E6F20636F70726F636573736F2B
:105820007220696E737472756374696F6E73002091
:1058300020496C6C6567616C206C6F6164206F66D9
:10584000204558435F52455455524E20696E746F3F
:10585000205043002020496C6C6567616C20757393
:1058600065206F66207468652045505352002020E3
:10587000417474656D707420746F2065786563750C
:10588000746520756E646566696E656420696E7303
:105890007472756374696F6E0052657365727665B4
:1058A0006420457863657074696F6E2028005370BA
:1058B0007572696F757320696E7465727275707434
:1058C00020284952512000535053454C20696E20E6
:1058D000746872656164206D6F646520646F6573C0
:1058E000206E6F7420696E64696361746520505323
:1058F00050002A2A2A2A2A2048415244204641554B
:105900004C54202A2A2A2A2A002020427573206615
:1059100061756C74206F6E20766563746F7220748D
:1059200061626C6520726561640020204661756C5F
:105930007420657363616C6174696F6E2028736590
:10594000652062656C6F7729002A2A2A2A2A20445A
:1059500065627567206D6F6E69746F72206578631C
:10596000657074696F6E20286E6F7420696D706C3D
:10597000656D656E74656429202A2A2A2A2A002A00
:105980002A2A2A2A20257320256429202A2A2A2A1D
:105990002A006D707500506172746974696F6E20B1
:1059A00025753A2073616E69747920636865636B4D
:1059B000206661696C65642E004661696C656420CF
:1059C000746F20616C6C6F63617465206E65772005
:1059D0004D505520726567696F6E2025750A004627
:1059E0004C4153485F30005352414D5F30004750A7
:1059F000494F4B004750494F4A004750494F4900D3
:105A00004750494F48004750494F47004750494F7A
:105A100046004750494F45004750494F44004750C2
:105A2000494F43004750494F42004750494F4100BA
:105A3000496E76616C6964206368616E6E656C2086
:105A40002825642900496E76616C696420636F6D56
:105A500062696E6174696F6E206F662070756C7319
:105A60006520616E6420706572696F64206379637C
:105A70006C657300436F756C64206E6F7420696E83
:105A8000697469616C697A652074696D65722063F7
:105A900068616E6E656C206F757470757400436F0D
:105AA000756C64206E6F7420696E697469616C69CD
:105AB0007A6520636C6F636B202825642900436F2F
:105AC000756C64206E6F74206F627461696E2074EF
:105AD000696D657220636C6F636B202825642900F3
:105AE00050574D2070696E6374726C2073657475C5
:105AF00070206661696C6564202825642900436F05
:105B0000756C64206E6F7420696E697469616C696C
:105B10007A652074696D65720070776D5F73746D5E
:105B2000333200000000000404043C3C0002040680
:105B3000080A0C1014000008000000080008466164
:105B4000696C65642063616C6C20636C6F636B5F70
:105B5000636F6E74726F6C5F6765745F726174659A
:105B600000496E76616C6964207061726974792095
:105B700073657474696E6720272564272E446566F3
:105B800061756C74696E6720746F20276E6F6E6527
:105B9000272E00756172745F73746D3332000000DC
:105BA000000001020304010203040607080948611A
:105BB0006C74696E672073797374656D00556E6BD4
:105BC0006E6F776E206572726F7200756E6B6E6F9E
:105BD000776E003E3E3E205A45504859522046417D
:105BE00054414C204552524F522025643A2025738F
:105BF000206F6E20435055202564004661756C74FB
:105C000020647572696E6720696E74657272757052
:105C1000742068616E646C696E670A004375727205
:105C2000656E74207468726561643A20257020285E
:105C30002573290043505520657863657074696F3A
:105C40006E00556E68616E646C656420696E746583
:105C5000727275707400537461636B206F76657235
:105C6000666C6F77004B65726E656C206F6F70733A
:105C7000004B65726E656C2070616E6963007A65B9
:105C8000706879722D76322E342E302D31323230CA
:105C90002D67316366383964636466626263002A23
:105CA0002A2A20426F6F74696E67205A657068797E
:105CB00072204F53206275696C6420257320257310
:105CC000202A2A2A0A006D61696E006F73000000A5
:105CD0003541000831430008A5150008B516000835
:105CE000000000007917000800000000E1450008EE
